{
  "_format": "hh-sol-artifact-1",
  "contractName": "Saturing",
  "sourceName": "contracts/Saturing.sol",
  "abi": [
    {
      "inputs": [],
      "stateMutability": "nonpayable",
      "type": "constructor"
    },
    {
      "inputs": [
        {
          "internalType": "address",
          "name": "spender",
          "type": "address"
        },
        {
          "internalType": "uint256",
          "name": "allowance",
          "type": "uint256"
        },
        {
          "internalType": "uint256",
          "name": "needed",
          "type": "uint256"
        }
      ],
      "name": "ERC20InsufficientAllowance",
      "type": "error"
    },
    {
      "inputs": [
        {
          "internalType": "address",
          "name": "sender",
          "type": "address"
        },
        {
          "internalType": "uint256",
          "name": "balance",
          "type": "uint256"
        },
        {
          "internalType": "uint256",
          "name": "needed",
          "type": "uint256"
        }
      ],
      "name": "ERC20InsufficientBalance",
      "type": "error"
    },
    {
      "inputs": [
        {
          "internalType": "address",
          "name": "approver",
          "type": "address"
        }
      ],
      "name": "ERC20InvalidApprover",
      "type": "error"
    },
    {
      "inputs": [
        {
          "internalType": "address",
          "name": "receiver",
          "type": "address"
        }
      ],
      "name": "ERC20InvalidReceiver",
      "type": "error"
    },
    {
      "inputs": [
        {
          "internalType": "address",
          "name": "sender",
          "type": "address"
        }
      ],
      "name": "ERC20InvalidSender",
      "type": "error"
    },
    {
      "inputs": [
        {
          "internalType": "address",
          "name": "spender",
          "type": "address"
        }
      ],
      "name": "ERC20InvalidSpender",
      "type": "error"
    },
    {
      "anonymous": false,
      "inputs": [
        {
          "indexed": true,
          "internalType": "address",
          "name": "owner",
          "type": "address"
        },
        {
          "indexed": true,
          "internalType": "address",
          "name": "spender",
          "type": "address"
        },
        {
          "indexed": false,
          "internalType": "uint256",
          "name": "value",
          "type": "uint256"
        }
      ],
      "name": "Approval",
      "type": "event"
    },
    {
      "anonymous": false,
      "inputs": [
        {
          "indexed": true,
          "internalType": "address",
          "name": "user",
          "type": "address"
        },
        {
          "indexed": false,
          "internalType": "uint256",
          "name": "newBalance",
          "type": "uint256"
        }
      ],
      "name": "BalanceUpdated",
      "type": "event"
    },
    {
      "anonymous": false,
      "inputs": [
        {
          "indexed": true,
          "internalType": "address",
          "name": "from",
          "type": "address"
        },
        {
          "indexed": true,
          "internalType": "address",
          "name": "to",
          "type": "address"
        },
        {
          "indexed": false,
          "internalType": "uint256",
          "name": "value",
          "type": "uint256"
        }
      ],
      "name": "Transfer",
      "type": "event"
    },
    {
      "anonymous": false,
      "inputs": [
        {
          "indexed": true,
          "internalType": "address",
          "name": "user",
          "type": "address"
        },
        {
          "indexed": false,
          "internalType": "string",
          "name": "codename",
          "type": "string"
        }
      ],
      "name": "UserRegistered",
      "type": "event"
    },
    {
      "inputs": [
        {
          "internalType": "address",
          "name": "owner",
          "type": "address"
        },
        {
          "internalType": "address",
          "name": "spender",
          "type": "address"
        }
      ],
      "name": "allowance",
      "outputs": [
        {
          "internalType": "uint256",
          "name": "",
          "type": "uint256"
        }
      ],
      "stateMutability": "view",
      "type": "function"
    },
    {
      "inputs": [
        {
          "internalType": "address",
          "name": "spender",
          "type": "address"
        },
        {
          "internalType": "uint256",
          "name": "value",
          "type": "uint256"
        }
      ],
      "name": "approve",
      "outputs": [
        {
          "internalType": "bool",
          "name": "",
          "type": "bool"
        }
      ],
      "stateMutability": "nonpayable",
      "type": "function"
    },
    {
      "inputs": [
        {
          "internalType": "address",
          "name": "account",
          "type": "address"
        }
      ],
      "name": "balanceOf",
      "outputs": [
        {
          "internalType": "uint256",
          "name": "",
          "type": "uint256"
        }
      ],
      "stateMutability": "view",
      "type": "function"
    },
    {
      "inputs": [
        {
          "internalType": "address",
          "name": "",
          "type": "address"
        }
      ],
      "name": "balances",
      "outputs": [
        {
          "internalType": "uint256",
          "name": "",
          "type": "uint256"
        }
      ],
      "stateMutability": "view",
      "type": "function"
    },
    {
      "inputs": [
        {
          "internalType": "string",
          "name": "",
          "type": "string"
        }
      ],
      "name": "codenames",
      "outputs": [
        {
          "internalType": "address",
          "name": "",
          "type": "address"
        }
      ],
      "stateMutability": "view",
      "type": "function"
    },
    {
      "inputs": [],
      "name": "decimals",
      "outputs": [
        {
          "internalType": "uint8",
          "name": "",
          "type": "uint8"
        }
      ],
      "stateMutability": "view",
      "type": "function"
    },
    {
      "inputs": [],
      "name": "getUsers",
      "outputs": [
        {
          "components": [
            {
              "internalType": "address",
              "name": "addr",
              "type": "address"
            },
            {
              "internalType": "string",
              "name": "codename",
              "type": "string"
            }
          ],
          "internalType": "struct User[]",
          "name": "",
          "type": "tuple[]"
        }
      ],
      "stateMutability": "view",
      "type": "function"
    },
    {
      "inputs": [],
      "name": "getUsersToVote",
      "outputs": [
        {
          "components": [
            {
              "internalType": "address",
              "name": "addr",
              "type": "address"
            },
            {
              "internalType": "string",
              "name": "codename",
              "type": "string"
            }
          ],
          "internalType": "struct User[]",
          "name": "",
          "type": "tuple[]"
        }
      ],
      "stateMutability": "view",
      "type": "function"
    },
    {
      "inputs": [],
      "name": "getUsersWithBalance",
      "outputs": [
        {
          "components": [
            {
              "internalType": "address",
              "name": "addr",
              "type": "address"
            },
            {
              "internalType": "string",
              "name": "codename",
              "type": "string"
            },
            {
              "internalType": "uint256",
              "name": "balance",
              "type": "uint256"
            }
          ],
          "internalType": "struct UserWithBalance[]",
          "name": "",
          "type": "tuple[]"
        }
      ],
      "stateMutability": "view",
      "type": "function"
    },
    {
      "inputs": [],
      "name": "isAdmin",
      "outputs": [
        {
          "internalType": "bool",
          "name": "",
          "type": "bool"
        }
      ],
      "stateMutability": "view",
      "type": "function"
    },
    {
      "inputs": [
        {
          "internalType": "string",
          "name": "codename",
          "type": "string"
        },
        {
          "internalType": "uint256",
          "name": "amount",
          "type": "uint256"
        }
      ],
      "name": "issueToken",
      "outputs": [],
      "stateMutability": "nonpayable",
      "type": "function"
    },
    {
      "inputs": [],
      "name": "name",
      "outputs": [
        {
          "internalType": "string",
          "name": "",
          "type": "string"
        }
      ],
      "stateMutability": "view",
      "type": "function"
    },
    {
      "inputs": [],
      "name": "owner",
      "outputs": [
        {
          "internalType": "address",
          "name": "",
          "type": "address"
        }
      ],
      "stateMutability": "view",
      "type": "function"
    },
    {
      "inputs": [
        {
          "internalType": "string",
          "name": "codename",
          "type": "string"
        },
        {
          "internalType": "address",
          "name": "addr",
          "type": "address"
        }
      ],
      "name": "registerUser",
      "outputs": [],
      "stateMutability": "nonpayable",
      "type": "function"
    },
    {
      "inputs": [
        {
          "internalType": "string[]",
          "name": "codenamesArray",
          "type": "string[]"
        },
        {
          "internalType": "address[]",
          "name": "addressesArray",
          "type": "address[]"
        }
      ],
      "name": "registerUsers",
      "outputs": [],
      "stateMutability": "nonpayable",
      "type": "function"
    },
    {
      "inputs": [],
      "name": "resetSystem",
      "outputs": [],
      "stateMutability": "nonpayable",
      "type": "function"
    },
    {
      "inputs": [],
      "name": "symbol",
      "outputs": [
        {
          "internalType": "string",
          "name": "",
          "type": "string"
        }
      ],
      "stateMutability": "view",
      "type": "function"
    },
    {
      "inputs": [],
      "name": "teacher",
      "outputs": [
        {
          "internalType": "address",
          "name": "",
          "type": "address"
        }
      ],
      "stateMutability": "view",
      "type": "function"
    },
    {
      "inputs": [],
      "name": "totalSupply",
      "outputs": [
        {
          "internalType": "uint256",
          "name": "",
          "type": "uint256"
        }
      ],
      "stateMutability": "view",
      "type": "function"
    },
    {
      "inputs": [
        {
          "internalType": "address",
          "name": "to",
          "type": "address"
        },
        {
          "internalType": "uint256",
          "name": "value",
          "type": "uint256"
        }
      ],
      "name": "transfer",
      "outputs": [
        {
          "internalType": "bool",
          "name": "",
          "type": "bool"
        }
      ],
      "stateMutability": "nonpayable",
      "type": "function"
    },
    {
      "inputs": [
        {
          "internalType": "address",
          "name": "from",
          "type": "address"
        },
        {
          "internalType": "address",
          "name": "to",
          "type": "address"
        },
        {
          "internalType": "uint256",
          "name": "value",
          "type": "uint256"
        }
      ],
      "name": "transferFrom",
      "outputs": [
        {
          "internalType": "bool",
          "name": "",
          "type": "bool"
        }
      ],
      "stateMutability": "nonpayable",
      "type": "function"
    },
    {
      "inputs": [
        {
          "internalType": "uint256",
          "name": "",
          "type": "uint256"
        }
      ],
      "name": "users",
      "outputs": [
        {
          "internalType": "address",
          "name": "addr",
          "type": "address"
        },
        {
          "internalType": "string",
          "name": "codename",
          "type": "string"
        }
      ],
      "stateMutability": "view",
      "type": "function"
    },
    {
      "inputs": [
        {
          "internalType": "address",
          "name": "",
          "type": "address"
        }
      ],
      "name": "usersRegistered",
      "outputs": [
        {
          "internalType": "bool",
          "name": "",
          "type": "bool"
        }
      ],
      "stateMutability": "view",
      "type": "function"
    },
    {
      "inputs": [
        {
          "internalType": "string",
          "name": "codename",
          "type": "string"
        },
        {
          "internalType": "uint256",
          "name": "amount",
          "type": "uint256"
        }
      ],
      "name": "vote",
      "outputs": [],
      "stateMutability": "nonpayable",
      "type": "function"
    },
    {
      "inputs": [
        {
          "internalType": "address",
          "name": "",
          "type": "address"
        },
        {
          "internalType": "string",
          "name": "",
          "type": "string"
        }
      ],
      "name": "voted",
      "outputs": [
        {
          "internalType": "bool",
          "name": "",
          "type": "bool"
        }
      ],
      "stateMutability": "view",
      "type": "function"
    },
    {
      "inputs": [],
      "name": "votingActive",
      "outputs": [
        {
          "internalType": "bool",
          "name": "",
          "type": "bool"
        }
      ],
      "stateMutability": "view",
      "type": "function"
    },
    {
      "inputs": [],
      "name": "votingToggle",
      "outputs": [],
      "stateMutability": "nonpayable",
      "type": "function"
    }
  ],
  "bytecode": "0x608060405234801561001057600080fd5b506040518060400160405280600881526020017f5341545552494e470000000000000000000000000000000000000000000000008152506040518060400160405280600381526020017f5354550000000000000000000000000000000000000000000000000000000000815250816003908161008c9190610350565b50806004908161009c9190610350565b50505033600660006101000a81548173ffffffffffffffffffffffffffffffffffffffff021916908373ffffffffffffffffffffffffffffffffffffffff1602179055506001600660146101000a81548160ff021916908315150217905550610422565b600081519050919050565b7f4e487b7100000000000000000000000000000000000000000000000000000000600052604160045260246000fd5b7f4e487b7100000000000000000000000000000000000000000000000000000000600052602260045260246000fd5b6000600282049050600182168061018157607f821691505b6020821081036101945761019361013a565b5b50919050565b60008190508160005260206000209050919050565b60006020601f8301049050919050565b600082821b905092915050565b6000600883026101fc7fffffffffffffffffffffffffffffffffffffffffffffffffffffffffffffffff826101bf565b61020686836101bf565b95508019841693508086168417925050509392505050565b6000819050919050565b6000819050919050565b600061024d6102486102438461021e565b610228565b61021e565b9050919050565b6000819050919050565b61026783610232565b61027b61027382610254565b8484546101cc565b825550505050565b600090565b610290610283565b61029b81848461025e565b505050565b5b818110156102bf576102b4600082610288565b6001810190506102a1565b5050565b601f821115610304576102d58161019a565b6102de846101af565b810160208510156102ed578190505b6103016102f9856101af565b8301826102a0565b50505b505050565b600082821c905092915050565b600061032760001984600802610309565b1980831691505092915050565b60006103408383610316565b9150826002028217905092915050565b61035982610100565b67ffffffffffffffff8111156103725761037161010b565b5b61037c8254610169565b6103878282856102c3565b600060209050601f8311600181146103ba57600084156103a8578287015190505b6103b28582610334565b86555061041a565b601f1984166103c88661019a565b60005b828110156103f0578489015182556001820191506020850194506020810190506103cb565b8683101561040d5784890151610409601f891682610316565b8355505b6001600288020188555050505b505050505050565b614313806104316000396000f3fe608060405234801561001057600080fd5b50600436106101a85760003560e01c80634985d059116100f9578063a638580311610097578063b6db75a011610071578063b6db75a0146104c2578063c683e0f4146104e0578063dd62ed3e146104fc578063e2892cbc1461052c576101a8565b8063a638580314610458578063a9059cbb14610474578063b46bff89146104a4576101a8565b806382a85fe4116100d357806382a85fe4146103e25780638da5cb5b146103ec57806395d89b411461040a578063a43deec214610428576101a8565b80634985d0591461038a578063506879531461039457806370a08231146103b2576101a8565b806318160ddd1161016657806327e235e31161014057806327e235e3146102ed578063313ce5671461031d578063365b98b21461033b578063408e27271461036c576101a8565b806318160ddd1461028157806322aad7e11461029f57806323b872dd146102bd576101a8565b8062ce8e3e146101ad57806306fdde03146101cb578063095ea7b3146101e95780630a2a6aad146102195780630a7e9456146102355780630e54b87214610265575b600080fd5b6101b561055c565b6040516101c29190612fd3565b60405180910390f35b6101d36106a3565b6040516101e0919061303f565b60405180910390f35b61020360048036038101906101fe91906130d7565b610735565b6040516102109190613132565b60405180910390f35b610233600480360381019061022e919061342b565b610758565b005b61024f600480360381019061024a91906134a3565b610c20565b60405161025c9190613132565b60405180910390f35b61027f600480360381019061027a91906134ff565b610c65565b005b610289611035565b604051610296919061356a565b60405180910390f35b6102a761103f565b6040516102b491906136a6565b60405180910390f35b6102d760048036038101906102d291906136c8565b611251565b6040516102e49190613132565b60405180910390f35b6103076004803603810190610302919061371b565b611280565b604051610314919061356a565b60405180910390f35b610325611298565b6040516103329190613764565b60405180910390f35b6103556004803603810190610350919061377f565b6112a1565b6040516103639291906137bb565b60405180910390f35b61037461137d565b6040516103819190613132565b60405180910390f35b610392611390565b005b61039c611496565b6040516103a99190612fd3565b60405180910390f35b6103cc60048036038101906103c7919061371b565b611956565b6040516103d9919061356a565b60405180910390f35b6103ea61199e565b005b6103f4611d84565b60405161040191906137eb565b60405180910390f35b610412611daa565b60405161041f919061303f565b60405180910390f35b610442600480360381019061043d919061371b565b611e3c565b60405161044f9190613132565b60405180910390f35b610472600480360381019061046d9190613806565b611e5c565b005b61048e600480360381019061048991906130d7565b61228c565b60405161049b9190613132565b60405180910390f35b6104ac6122af565b6040516104b991906137eb565b60405180910390f35b6104ca6122c7565b6040516104d79190613132565b60405180910390f35b6104fa60048036038101906104f59190613806565b612369565b005b61051660048036038101906105119190613862565b61255a565b604051610523919061356a565b60405180910390f35b610546600480360381019061054191906138a2565b6125e1565b60405161055391906137eb565b60405180910390f35b60606007805480602002602001604051908101604052809291908181526020016000905b8282101561069a57838290600052602060002090600202016040518060400160405290816000820160009054906101000a900473ffffffffffffffffffffffffffffffffffffffff1673ffffffffffffffffffffffffffffffffffffffff1673ffffffffffffffffffffffffffffffffffffffff1681526020016001820180546106099061391a565b80601f01602080910402602001604051908101604052809291908181526020018280546106359061391a565b80156106825780601f1061065757610100808354040283529160200191610682565b820191906000526020600020905b81548152906001019060200180831161066557829003601f168201915b50505050508152505081526020019060010190610580565b50505050905090565b6060600380546106b29061391a565b80601f01602080910402602001604051908101604052809291908181526020018280546106de9061391a565b801561072b5780601f106107005761010080835404028352916020019161072b565b820191906000526020600020905b81548152906001019060200180831161070e57829003601f168201915b5050505050905090565b60008061074061262a565b905061074d818585612632565b600191505092915050565b600660009054906101000a900473ffffffffffffffffffffffffffffffffffffffff1673ffffffffffffffffffffffffffffffffffffffff163373ffffffffffffffffffffffffffffffffffffffff1614806107f3575073502542668af09fa7aea52174b9965a7799343df773ffffffffffffffffffffffffffffffffffffffff163373ffffffffffffffffffffffffffffffffffffffff16145b610832576040517f08c379a000000000000000000000000000000000000000000000000000000000815260040161082990613997565b60405180910390fd5b8051825114610876576040517f08c379a000000000000000000000000000000000000000000000000000000000815260040161086d90613a29565b60405180910390fd5b60005b8251811015610a0957600083828151811061089757610896613a49565b5b6020026020010151905060008383815181106108b6576108b5613a49565b5b60200260200101519050600073ffffffffffffffffffffffffffffffffffffffff166008836040516108e89190613ab4565b908152602001604051809103902060009054906101000a900473ffffffffffffffffffffffffffffffffffffffff1673ffffffffffffffffffffffffffffffffffffffff161461096d576040517f08c379a000000000000000000000000000000000000000000000000000000000815260040161096490613b17565b60405180910390fd5b600960008273ffffffffffffffffffffffffffffffffffffffff1673ffffffffffffffffffffffffffffffffffffffff16815260200190815260200160002060009054906101000a900460ff16156109fa576040517f08c379a00000000000000000000000000000000000000000000000000000000081526004016109f190613b83565b60405180910390fd5b50508080600101915050610879565b5060005b8251811015610c1b576000838281518110610a2b57610a2a613a49565b5b602002602001015190506000838381518110610a4a57610a49613a49565b5b6020026020010151905080600883604051610a659190613ab4565b908152602001604051809103902060006101000a81548173ffffffffffffffffffffffffffffffffffffffff021916908373ffffffffffffffffffffffffffffffffffffffff1602179055506001600960008373ffffffffffffffffffffffffffffffffffffffff1673ffffffffffffffffffffffffffffffffffffffff16815260200190815260200160002060006101000a81548160ff021916908315150217905550600760405180604001604052808373ffffffffffffffffffffffffffffffffffffffff16815260200184815250908060018154018082558091505060019003906000526020600020906002020160009091909190915060008201518160000160006101000a81548173ffffffffffffffffffffffffffffffffffffffff021916908373ffffffffffffffffffffffffffffffffffffffff1602179055506020820151816001019081610bbb9190613d4f565b5050508073ffffffffffffffffffffffffffffffffffffffff167f48cac28ad4dc618e15f4c2dd5e97751182f166de97b25618318b2112aa951a2f83604051610c04919061303f565b60405180910390a250508080600101915050610a0d565b505050565b600a602052816000526040600020818051602081018201805184825260208301602085012081835280955050505050506000915091509054906101000a900460ff1681565b600660009054906101000a900473ffffffffffffffffffffffffffffffffffffffff1673ffffffffffffffffffffffffffffffffffffffff163373ffffffffffffffffffffffffffffffffffffffff161480610d00575073502542668af09fa7aea52174b9965a7799343df773ffffffffffffffffffffffffffffffffffffffff163373ffffffffffffffffffffffffffffffffffffffff16145b610d3f576040517f08c379a0000000000000000000000000000000000000000000000000000000008152600401610d3690613997565b60405180910390fd5b600073ffffffffffffffffffffffffffffffffffffffff16600883604051610d679190613ab4565b908152602001604051809103902060009054906101000a900473ffffffffffffffffffffffffffffffffffffffff1673ffffffffffffffffffffffffffffffffffffffff1614610dec576040517f08c379a0000000000000000000000000000000000000000000000000000000008152600401610de390613b17565b60405180910390fd5b600960008273ffffffffffffffffffffffffffffffffffffffff1673ffffffffffffffffffffffffffffffffffffffff16815260200190815260200160002060009054906101000a900460ff1615610e79576040517f08c379a0000000000000000000000000000000000000000000000000000000008152600401610e7090613b83565b60405180910390fd5b80600883604051610e8a9190613ab4565b908152602001604051809103902060006101000a81548173ffffffffffffffffffffffffffffffffffffffff021916908373ffffffffffffffffffffffffffffffffffffffff1602179055506001600960008373ffffffffffffffffffffffffffffffffffffffff1673ffffffffffffffffffffffffffffffffffffffff16815260200190815260200160002060006101000a81548160ff021916908315150217905550600760405180604001604052808373ffffffffffffffffffffffffffffffffffffffff16815260200184815250908060018154018082558091505060019003906000526020600020906002020160009091909190915060008201518160000160006101000a81548173ffffffffffffffffffffffffffffffffffffffff021916908373ffffffffffffffffffffffffffffffffffffffff1602179055506020820151816001019081610fe09190613d4f565b5050508073ffffffffffffffffffffffffffffffffffffffff167f48cac28ad4dc618e15f4c2dd5e97751182f166de97b25618318b2112aa951a2f83604051611029919061303f565b60405180910390a25050565b6000600254905090565b6060600060078054905067ffffffffffffffff81111561106257611061613152565b5b60405190808252806020026020018201604052801561109b57816020015b611088612ccd565b8152602001906001900390816110805790505b50905060005b600780549050811015611249576040518060600160405280600783815481106110cd576110cc613a49565b5b906000526020600020906002020160000160009054906101000a900473ffffffffffffffffffffffffffffffffffffffff1673ffffffffffffffffffffffffffffffffffffffff1681526020016007838154811061112e5761112d613a49565b5b9060005260206000209060020201600101805461114a9061391a565b80601f01602080910402602001604051908101604052809291908181526020018280546111769061391a565b80156111c35780601f10611198576101008083540402835291602001916111c3565b820191906000526020600020905b8154815290600101906020018083116111a657829003601f168201915b5050505050815260200161121b600784815481106111e4576111e3613a49565b5b906000526020600020906002020160000160009054906101000a900473ffffffffffffffffffffffffffffffffffffffff16611956565b81525082828151811061123157611230613a49565b5b602002602001018190525080806001019150506110a1565b508091505090565b60008061125c61262a565b9050611269858285612644565b6112748585856126d9565b60019150509392505050565b60056020528060005260406000206000915090505481565b60006012905090565b600781815481106112b157600080fd5b90600052602060002090600202016000915090508060000160009054906101000a900473ffffffffffffffffffffffffffffffffffffffff16908060010180546112fa9061391a565b80601f01602080910402602001604051908101604052809291908181526020018280546113269061391a565b80156113735780601f1061134857610100808354040283529160200191611373565b820191906000526020600020905b81548152906001019060200180831161135657829003601f168201915b5050505050905082565b600660149054906101000a900460ff1681565b600660009054906101000a900473ffffffffffffffffffffffffffffffffffffffff1673ffffffffffffffffffffffffffffffffffffffff163373ffffffffffffffffffffffffffffffffffffffff16148061142b575073502542668af09fa7aea52174b9965a7799343df773ffffffffffffffffffffffffffffffffffffffff163373ffffffffffffffffffffffffffffffffffffffff16145b61146a576040517f08c379a000000000000000000000000000000000000000000000000000000000815260040161146190613997565b60405180910390fd5b600660149054906101000a900460ff1615600660146101000a81548160ff021916908315150217905550565b6060600960003373ffffffffffffffffffffffffffffffffffffffff1673ffffffffffffffffffffffffffffffffffffffff16815260200190815260200160002060009054906101000a900460ff1661154557600067ffffffffffffffff81111561150457611503613152565b5b60405190808252806020026020018201604052801561153d57816020015b61152a612d04565b8152602001906001900390816115225790505b509050611953565b6000805b60078054905081101561168257600a60003373ffffffffffffffffffffffffffffffffffffffff1673ffffffffffffffffffffffffffffffffffffffff168152602001908152602001600020600782815481106115a9576115a8613a49565b5b90600052602060002090600202016001016040516115c79190613ea4565b908152602001604051809103902060009054906101000a900460ff1615801561166157503373ffffffffffffffffffffffffffffffffffffffff166007828154811061161657611615613a49565b5b906000526020600020906002020160000160009054906101000a900473ffffffffffffffffffffffffffffffffffffffff1673ffffffffffffffffffffffffffffffffffffffff1614155b1561167557818061167190613eea565b9250505b8080600101915050611549565b5060008167ffffffffffffffff81111561169f5761169e613152565b5b6040519080825280602002602001820160405280156116d857816020015b6116c5612d04565b8152602001906001900390816116bd5790505b5090506000805b60078054905081101561194b57600a60003373ffffffffffffffffffffffffffffffffffffffff1673ffffffffffffffffffffffffffffffffffffffff1681526020019081526020016000206007828154811061173f5761173e613a49565b5b906000526020600020906002020160010160405161175d9190613ea4565b908152602001604051809103902060009054906101000a900460ff161580156117f757503373ffffffffffffffffffffffffffffffffffffffff16600782815481106117ac576117ab613a49565b5b906000526020600020906002020160000160009054906101000a900473ffffffffffffffffffffffffffffffffffffffff1673ffffffffffffffffffffffffffffffffffffffff1614155b1561193e57600781815481106118105761180f613a49565b5b90600052602060002090600202016040518060400160405290816000820160009054906101000a900473ffffffffffffffffffffffffffffffffffffffff1673ffffffffffffffffffffffffffffffffffffffff1673ffffffffffffffffffffffffffffffffffffffff16815260200160018201805461188f9061391a565b80601f01602080910402602001604051908101604052809291908181526020018280546118bb9061391a565b80156119085780601f106118dd57610100808354040283529160200191611908565b820191906000526020600020905b8154815290600101906020018083116118eb57829003601f168201915b50505050508152505083838151811061192457611923613a49565b5b6020026020010181905250818061193a90613eea565b9250505b80806001019150506116df565b508193505050505b90565b60008060008373ffffffffffffffffffffffffffffffffffffffff1673ffffffffffffffffffffffffffffffffffffffff168152602001908152602001600020549050919050565b600660009054906101000a900473ffffffffffffffffffffffffffffffffffffffff1673ffffffffffffffffffffffffffffffffffffffff163373ffffffffffffffffffffffffffffffffffffffff161480611a39575073502542668af09fa7aea52174b9965a7799343df773ffffffffffffffffffffffffffffffffffffffff163373ffffffffffffffffffffffffffffffffffffffff16145b611a78576040517f08c379a0000000000000000000000000000000000000000000000000000000008152600401611a6f90613997565b60405180910390fd5b60005b600780549050811015611b3157611b2460078281548110611a9f57611a9e613a49565b5b906000526020600020906002020160000160009054906101000a900473ffffffffffffffffffffffffffffffffffffffff16611b1f60078481548110611ae857611ae7613a49565b5b906000526020600020906002020160000160009054906101000a900473ffffffffffffffffffffffffffffffffffffffff16611956565b6127cd565b8080600101915050611a7b565b5060005b600780549050811015611c415760005b600780549050811015611c3357600a600060078481548110611b6a57611b69613a49565b5b906000526020600020906002020160000160009054906101000a900473ffffffffffffffffffffffffffffffffffffffff1673ffffffffffffffffffffffffffffffffffffffff1673ffffffffffffffffffffffffffffffffffffffff16815260200190815260200160002060078281548110611bea57611be9613a49565b5b9060005260206000209060020201600101604051611c089190613ea4565b908152602001604051809103902060006101000a81549060ff02191690558080600101915050611b45565b508080600101915050611b35565b5060005b600780549050811015611d5857600860078281548110611c6857611c67613a49565b5b9060005260206000209060020201600101604051611c869190613ea4565b908152602001604051809103902060006101000a81549073ffffffffffffffffffffffffffffffffffffffff02191690556009600060078381548110611ccf57611cce613a49565b5b906000526020600020906002020160000160009054906101000a900473ffffffffffffffffffffffffffffffffffffffff1673ffffffffffffffffffffffffffffffffffffffff1673ffffffffffffffffffffffffffffffffffffffff16815260200190815260200160002060006101000a81549060ff02191690558080600101915050611c45565b5060076000611d679190612d34565b6001600660146101000a81548160ff021916908315150217905550565b600660009054906101000a900473ffffffffffffffffffffffffffffffffffffffff1681565b606060048054611db99061391a565b80601f0160208091040260200160405190810160405280929190818152602001828054611de59061391a565b8015611e325780601f10611e0757610100808354040283529160200191611e32565b820191906000526020600020905b815481529060010190602001808311611e1557829003601f168201915b5050505050905090565b60096020528060005260406000206000915054906101000a900460ff1681565b600660149054906101000a900460ff16611eab576040517f08c379a0000000000000000000000000000000000000000000000000000000008152600401611ea290613f7e565b60405180910390fd5b600960003373ffffffffffffffffffffffffffffffffffffffff1673ffffffffffffffffffffffffffffffffffffffff16815260200190815260200160002060009054906101000a900460ff16611f37576040517f08c379a0000000000000000000000000000000000000000000000000000000008152600401611f2e90613fea565b60405180910390fd5b6000600883604051611f499190613ab4565b908152602001604051809103902060009054906101000a900473ffffffffffffffffffffffffffffffffffffffff169050600073ffffffffffffffffffffffffffffffffffffffff168173ffffffffffffffffffffffffffffffffffffffff1603611fe9576040517f08c379a0000000000000000000000000000000000000000000000000000000008152600401611fe09061407c565b60405180910390fd5b3373ffffffffffffffffffffffffffffffffffffffff168173ffffffffffffffffffffffffffffffffffffffff1603612057576040517f08c379a000000000000000000000000000000000000000000000000000000000815260040161204e906140e8565b60405180910390fd5b600a60003373ffffffffffffffffffffffffffffffffffffffff1673ffffffffffffffffffffffffffffffffffffffff168152602001908152602001600020836040516120a49190613ab4565b908152602001604051809103902060009054906101000a900460ff1615612100576040517f08c379a00000000000000000000000000000000000000000000000000000000081526004016120f790614154565b60405180910390fd5b671bc16d674ec8000082111561214b576040517f08c379a0000000000000000000000000000000000000000000000000000000008152600401612142906141e6565b60405180910390fd5b6001600a60003373ffffffffffffffffffffffffffffffffffffffff1673ffffffffffffffffffffffffffffffffffffffff1681526020019081526020016000208460405161219a9190613ab4565b908152602001604051809103902060006101000a81548160ff0219169083151502179055506121c9818361284f565b8073ffffffffffffffffffffffffffffffffffffffff167f8ad64a0ac7700dd8425ab0499f107cb6e2cd1581d803c5b8c1c79dcb8190b1af61220a83611956565b604051612217919061356a565b60405180910390a2612231336702c68af0bb14000061284f565b3373ffffffffffffffffffffffffffffffffffffffff167f8ad64a0ac7700dd8425ab0499f107cb6e2cd1581d803c5b8c1c79dcb8190b1af61227233611956565b60405161227f919061356a565b60405180910390a2505050565b60008061229761262a565b90506122a48185856126d9565b600191505092915050565b73502542668af09fa7aea52174b9965a7799343df781565b6000600660009054906101000a900473ffffffffffffffffffffffffffffffffffffffff1673ffffffffffffffffffffffffffffffffffffffff163373ffffffffffffffffffffffffffffffffffffffff161480612364575073502542668af09fa7aea52174b9965a7799343df773ffffffffffffffffffffffffffffffffffffffff163373ffffffffffffffffffffffffffffffffffffffff16145b905090565b600660009054906101000a900473ffffffffffffffffffffffffffffffffffffffff1673ffffffffffffffffffffffffffffffffffffffff163373ffffffffffffffffffffffffffffffffffffffff161480612404575073502542668af09fa7aea52174b9965a7799343df773ffffffffffffffffffffffffffffffffffffffff163373ffffffffffffffffffffffffffffffffffffffff16145b612443576040517f08c379a000000000000000000000000000000000000000000000000000000000815260040161243a90613997565b60405180910390fd5b60006008836040516124559190613ab4565b908152602001604051809103902060009054906101000a900473ffffffffffffffffffffffffffffffffffffffff169050600073ffffffffffffffffffffffffffffffffffffffff168173ffffffffffffffffffffffffffffffffffffffff16036124f5576040517f08c379a00000000000000000000000000000000000000000000000000000000081526004016124ec90614252565b60405180910390fd5b6124ff818361284f565b8073ffffffffffffffffffffffffffffffffffffffff167f8ad64a0ac7700dd8425ab0499f107cb6e2cd1581d803c5b8c1c79dcb8190b1af61254083611956565b60405161254d919061356a565b60405180910390a2505050565b6000600160008473ffffffffffffffffffffffffffffffffffffffff1673ffffffffffffffffffffffffffffffffffffffff16815260200190815260200160002060008373ffffffffffffffffffffffffffffffffffffffff1673ffffffffffffffffffffffffffffffffffffffff16815260200190815260200160002054905092915050565b6008818051602081018201805184825260208301602085012081835280955050505050506000915054906101000a900473ffffffffffffffffffffffffffffffffffffffff1681565b600033905090565b61263f83838360016128d1565b505050565b6000612650848461255a565b90507fffffffffffffffffffffffffffffffffffffffffffffffffffffffffffffffff8110156126d357818110156126c3578281836040517ffb8f41b20000000000000000000000000000000000000000000000000000000081526004016126ba93929190614272565b60405180910390fd5b6126d2848484840360006128d1565b5b50505050565b600073ffffffffffffffffffffffffffffffffffffffff168373ffffffffffffffffffffffffffffffffffffffff160361274b5760006040517f96c6fd1e00000000000000000000000000000000000000000000000000000000815260040161274291906137eb565b60405180910390fd5b600073ffffffffffffffffffffffffffffffffffffffff168273ffffffffffffffffffffffffffffffffffffffff16036127bd5760006040517fec442f050000000000000000000000000000000000000000000000000000000081526004016127b491906137eb565b60405180910390fd5b6127c8838383612aa8565b505050565b600073ffffffffffffffffffffffffffffffffffffffff168273ffffffffffffffffffffffffffffffffffffffff160361283f5760006040517f96c6fd1e00000000000000000000000000000000000000000000000000000000815260040161283691906137eb565b60405180910390fd5b61284b82600083612aa8565b5050565b600073ffffffffffffffffffffffffffffffffffffffff168273ffffffffffffffffffffffffffffffffffffffff16036128c15760006040517fec442f050000000000000000000000000000000000000000000000000000000081526004016128b891906137eb565b60405180910390fd5b6128cd60008383612aa8565b5050565b600073ffffffffffffffffffffffffffffffffffffffff168473ffffffffffffffffffffffffffffffffffffffff16036129435760006040517fe602df0500000000000000000000000000000000000000000000000000000000815260040161293a91906137eb565b60405180910390fd5b600073ffffffffffffffffffffffffffffffffffffffff168373ffffffffffffffffffffffffffffffffffffffff16036129b55760006040517f94280d620000000000000000000000000000000000000000000000000000000081526004016129ac91906137eb565b60405180910390fd5b81600160008673ffffffffffffffffffffffffffffffffffffffff1673ffffffffffffffffffffffffffffffffffffffff16815260200190815260200160002060008573ffffffffffffffffffffffffffffffffffffffff1673ffffffffffffffffffffffffffffffffffffffff168152602001908152602001600020819055508015612aa2578273ffffffffffffffffffffffffffffffffffffffff168473ffffffffffffffffffffffffffffffffffffffff167f8c5be1e5ebec7d5bd14f71427d1e84f3dd0314c0f7b2291e5b200ac8c7c3b92584604051612a99919061356a565b60405180910390a35b50505050565b600073ffffffffffffffffffffffffffffffffffffffff168373ffffffffffffffffffffffffffffffffffffffff1603612afa578060026000828254612aee91906142a9565b92505081905550612bcd565b60008060008573ffffffffffffffffffffffffffffffffffffffff1673ffffffffffffffffffffffffffffffffffffffff16815260200190815260200160002054905081811015612b86578381836040517fe450d38c000000000000000000000000000000000000000000000000000000008152600401612b7d93929190614272565b60405180910390fd5b8181036000808673ffffffffffffffffffffffffffffffffffffffff1673ffffffffffffffffffffffffffffffffffffffff16815260200190815260200160002081905550505b600073ffffffffffffffffffffffffffffffffffffffff168273ffffffffffffffffffffffffffffffffffffffff1603612c165780600260008282540392505081905550612c63565b806000808473ffffffffffffffffffffffffffffffffffffffff1673ffffffffffffffffffffffffffffffffffffffff168152602001908152602001600020600082825401925050819055505b8173ffffffffffffffffffffffffffffffffffffffff168373ffffffffffffffffffffffffffffffffffffffff167fddf252ad1be2c89b69c2b068fc378daa952ba7f163c4a11628f55a4df523b3ef83604051612cc0919061356a565b60405180910390a3505050565b6040518060600160405280600073ffffffffffffffffffffffffffffffffffffffff16815260200160608152602001600081525090565b6040518060400160405280600073ffffffffffffffffffffffffffffffffffffffff168152602001606081525090565b5080546000825560020290600052602060002090810190612d559190612d58565b50565b5b80821115612da257600080820160006101000a81549073ffffffffffffffffffffffffffffffffffffffff0219169055600182016000612d999190612da6565b50600201612d59565b5090565b508054612db29061391a565b6000825580601f10612dc45750612de3565b601f016020900490600052602060002090810190612de29190612de6565b5b50565b5b80821115612dff576000816000905550600101612de7565b5090565b600081519050919050565b600082825260208201905092915050565b6000819050602082019050919050565b600073ffffffffffffffffffffffffffffffffffffffff82169050919050565b6000612e5a82612e2f565b9050919050565b612e6a81612e4f565b82525050565b600081519050919050565b600082825260208201905092915050565b60005b83811015612eaa578082015181840152602081019050612e8f565b60008484015250505050565b6000601f19601f8301169050919050565b6000612ed282612e70565b612edc8185612e7b565b9350612eec818560208601612e8c565b612ef581612eb6565b840191505092915050565b6000604083016000830151612f186000860182612e61565b5060208301518482036020860152612f308282612ec7565b9150508091505092915050565b6000612f498383612f00565b905092915050565b6000602082019050919050565b6000612f6982612e03565b612f738185612e0e565b935083602082028501612f8585612e1f565b8060005b85811015612fc15784840389528151612fa28582612f3d565b9450612fad83612f51565b925060208a01995050600181019050612f89565b50829750879550505050505092915050565b60006020820190508181036000830152612fed8184612f5e565b905092915050565b600082825260208201905092915050565b600061301182612e70565b61301b8185612ff5565b935061302b818560208601612e8c565b61303481612eb6565b840191505092915050565b600060208201905081810360008301526130598184613006565b905092915050565b6000604051905090565b600080fd5b600080fd5b61307e81612e4f565b811461308957600080fd5b50565b60008135905061309b81613075565b92915050565b6000819050919050565b6130b4816130a1565b81146130bf57600080fd5b50565b6000813590506130d1816130ab565b92915050565b600080604083850312156130ee576130ed61306b565b5b60006130fc8582860161308c565b925050602061310d858286016130c2565b9150509250929050565b60008115159050919050565b61312c81613117565b82525050565b60006020820190506131476000830184613123565b92915050565b600080fd5b7f4e487b7100000000000000000000000000000000000000000000000000000000600052604160045260246000fd5b61318a82612eb6565b810181811067ffffffffffffffff821117156131a9576131a8613152565b5b80604052505050565b60006131bc613061565b90506131c88282613181565b919050565b600067ffffffffffffffff8211156131e8576131e7613152565b5b602082029050602081019050919050565b600080fd5b600080fd5b600067ffffffffffffffff82111561321e5761321d613152565b5b61322782612eb6565b9050602081019050919050565b82818337600083830152505050565b600061325661325184613203565b6131b2565b905082815260208101848484011115613272576132716131fe565b5b61327d848285613234565b509392505050565b600082601f83011261329a5761329961314d565b5b81356132aa848260208601613243565b91505092915050565b60006132c66132c1846131cd565b6131b2565b905080838252602082019050602084028301858111156132e9576132e86131f9565b5b835b8181101561333057803567ffffffffffffffff81111561330e5761330d61314d565b5b80860161331b8982613285565b855260208501945050506020810190506132eb565b5050509392505050565b600082601f83011261334f5761334e61314d565b5b813561335f8482602086016132b3565b91505092915050565b600067ffffffffffffffff82111561338357613382613152565b5b602082029050602081019050919050565b60006133a76133a284613368565b6131b2565b905080838252602082019050602084028301858111156133ca576133c96131f9565b5b835b818110156133f357806133df888261308c565b8452602084019350506020810190506133cc565b5050509392505050565b600082601f8301126134125761341161314d565b5b8135613422848260208601613394565b91505092915050565b600080604083850312156134425761344161306b565b5b600083013567ffffffffffffffff8111156134605761345f613070565b5b61346c8582860161333a565b925050602083013567ffffffffffffffff81111561348d5761348c613070565b5b613499858286016133fd565b9150509250929050565b600080604083850312156134ba576134b961306b565b5b60006134c88582860161308c565b925050602083013567ffffffffffffffff8111156134e9576134e8613070565b5b6134f585828601613285565b9150509250929050565b600080604083850312156135165761351561306b565b5b600083013567ffffffffffffffff81111561353457613533613070565b5b61354085828601613285565b92505060206135518582860161308c565b9150509250929050565b613564816130a1565b82525050565b600060208201905061357f600083018461355b565b92915050565b600081519050919050565b600082825260208201905092915050565b6000819050602082019050919050565b6135ba816130a1565b82525050565b60006060830160008301516135d86000860182612e61565b50602083015184820360208601526135f08282612ec7565b915050604083015161360560408601826135b1565b508091505092915050565b600061361c83836135c0565b905092915050565b6000602082019050919050565b600061363c82613585565b6136468185613590565b935083602082028501613658856135a1565b8060005b8581101561369457848403895281516136758582613610565b945061368083613624565b925060208a0199505060018101905061365c565b50829750879550505050505092915050565b600060208201905081810360008301526136c08184613631565b905092915050565b6000806000606084860312156136e1576136e061306b565b5b60006136ef8682870161308c565b93505060206137008682870161308c565b9250506040613711868287016130c2565b9150509250925092565b6000602082840312156137315761373061306b565b5b600061373f8482850161308c565b91505092915050565b600060ff82169050919050565b61375e81613748565b82525050565b60006020820190506137796000830184613755565b92915050565b6000602082840312156137955761379461306b565b5b60006137a3848285016130c2565b91505092915050565b6137b581612e4f565b82525050565b60006040820190506137d060008301856137ac565b81810360208301526137e28184613006565b90509392505050565b600060208201905061380060008301846137ac565b92915050565b6000806040838503121561381d5761381c61306b565b5b600083013567ffffffffffffffff81111561383b5761383a613070565b5b61384785828601613285565b9250506020613858858286016130c2565b9150509250929050565b600080604083850312156138795761387861306b565b5b60006138878582860161308c565b92505060206138988582860161308c565b9150509250929050565b6000602082840312156138b8576138b761306b565b5b600082013567ffffffffffffffff8111156138d6576138d5613070565b5b6138e284828501613285565b91505092915050565b7f4e487b7100000000000000000000000000000000000000000000000000000000600052602260045260246000fd5b6000600282049050600182168061393257607f821691505b602082108103613945576139446138eb565b5b50919050565b7f536f6d656e74652070726f666573736f72206f7520646f6e6f2e000000000000600082015250565b6000613981601a83612ff5565b915061398c8261394b565b602082019050919050565b600060208201905081810360008301526139b081613974565b9050919050565b7f41727261797320646576656d20746572206f206d65736d6f2074616d616e686f60008201527f2e00000000000000000000000000000000000000000000000000000000000000602082015250565b6000613a13602183612ff5565b9150613a1e826139b7565b604082019050919050565b60006020820190508181036000830152613a4281613a06565b9050919050565b7f4e487b7100000000000000000000000000000000000000000000000000000000600052603260045260246000fd5b600081905092915050565b6000613a8e82612e70565b613a988185613a78565b9350613aa8818560208601612e8c565b80840191505092915050565b6000613ac08284613a83565b915081905092915050565b7f436f64696e6f6d65206a6120666f69207265676973747261646f2e0000000000600082015250565b6000613b01601b83612ff5565b9150613b0c82613acb565b602082019050919050565b60006020820190508181036000830152613b3081613af4565b9050919050565b7f456e64657265636f206a61207265676973747261646f2e000000000000000000600082015250565b6000613b6d601783612ff5565b9150613b7882613b37565b602082019050919050565b60006020820190508181036000830152613b9c81613b60565b9050919050565b60008190508160005260206000209050919050565b60006020601f8301049050919050565b600082821b905092915050565b600060088302613c057fffffffffffffffffffffffffffffffffffffffffffffffffffffffffffffffff82613bc8565b613c0f8683613bc8565b95508019841693508086168417925050509392505050565b6000819050919050565b6000613c4c613c47613c42846130a1565b613c27565b6130a1565b9050919050565b6000819050919050565b613c6683613c31565b613c7a613c7282613c53565b848454613bd5565b825550505050565b600090565b613c8f613c82565b613c9a818484613c5d565b505050565b5b81811015613cbe57613cb3600082613c87565b600181019050613ca0565b5050565b601f821115613d0357613cd481613ba3565b613cdd84613bb8565b81016020851015613cec578190505b613d00613cf885613bb8565b830182613c9f565b50505b505050565b600082821c905092915050565b6000613d2660001984600802613d08565b1980831691505092915050565b6000613d3f8383613d15565b9150826002028217905092915050565b613d5882612e70565b67ffffffffffffffff811115613d7157613d70613152565b5b613d7b825461391a565b613d86828285613cc2565b600060209050601f831160018114613db95760008415613da7578287015190505b613db18582613d33565b865550613e19565b601f198416613dc786613ba3565b60005b82811015613def57848901518255600182019150602085019450602081019050613dca565b86831015613e0c5784890151613e08601f891682613d15565b8355505b6001600288020188555050505b505050505050565b60008154613e2e8161391a565b613e388186613a78565b94506001821660008114613e535760018114613e6857613e9b565b60ff1983168652811515820286019350613e9b565b613e7185613ba3565b60005b83811015613e9357815481890152600182019150602081019050613e74565b838801955050505b50505092915050565b6000613eb08284613e21565b915081905092915050565b7f4e487b7100000000000000000000000000000000000000000000000000000000600052601160045260246000fd5b6000613ef5826130a1565b91507fffffffffffffffffffffffffffffffffffffffffffffffffffffffffffffffff8203613f2757613f26613ebb565b5b600182019050919050565b7f566f746163616f20696e61746976612e00000000000000000000000000000000600082015250565b6000613f68601083612ff5565b9150613f7382613f32565b602082019050919050565b60006020820190508181036000830152613f9781613f5b565b9050919050565b7f5573756172696f206e616f2065737461207265676973747261646f2e00000000600082015250565b6000613fd4601c83612ff5565b9150613fdf82613f9e565b602082019050919050565b6000602082019050818103600083015261400381613fc7565b9050919050565b7f436f64696e6f6d652063616e64696461746f206e616f2072656769737472616460008201527f6f00000000000000000000000000000000000000000000000000000000000000602082015250565b6000614066602183612ff5565b91506140718261400a565b604082019050919050565b6000602082019050818103600083015261409581614059565b9050919050565b7f4e616f20706f646520766f74617220656d207369206d65736d6f000000000000600082015250565b60006140d2601a83612ff5565b91506140dd8261409c565b602082019050919050565b60006020820190508181036000830152614101816140c5565b9050919050565b7f4a6120766f746f752070617261206573736520636f64696e6f6d650000000000600082015250565b600061413e601b83612ff5565b915061414982614108565b602082019050919050565b6000602082019050818103600083015261416d81614131565b9050919050565b7f5175616e746964616465206465207361747572696e6773206163696d6120646f60008201527f206d6178696d6f207065726d697469646f000000000000000000000000000000602082015250565b60006141d0603183612ff5565b91506141db82614174565b604082019050919050565b600060208201905081810360008301526141ff816141c3565b9050919050565b7f436f64696e6f6d65206e616f207265676973747261646f2e0000000000000000600082015250565b600061423c601883612ff5565b915061424782614206565b602082019050919050565b6000602082019050818103600083015261426b8161422f565b9050919050565b600060608201905061428760008301866137ac565b614294602083018561355b565b6142a1604083018461355b565b949350505050565b60006142b4826130a1565b91506142bf836130a1565b92508282019050808211156142d7576142d6613ebb565b5b9291505056fea26469706673582212205d13918647ef58a130215c01098ad99e048527e015d775e7d0cd72008d48355564736f6c634300081c0033",
  "linkReferences": {},
  "deployedLinkReferences": {}
}